{
	"data": {
		"bytecode": {
			"linkReferences": {},
			"object": "608060405234801561001057600080fd5b5060405161084d38038061084d833981810160405281019061003291906100db565b806000806101000a81548173ffffffffffffffffffffffffffffffffffffffff021916908373ffffffffffffffffffffffffffffffffffffffff16021790555050610108565b600080fd5b600073ffffffffffffffffffffffffffffffffffffffff82169050919050565b60006100a88261007d565b9050919050565b6100b88161009d565b81146100c357600080fd5b50565b6000815190506100d5816100af565b92915050565b6000602082840312156100f1576100f0610078565b5b60006100ff848285016100c6565b91505092915050565b610736806101176000396000f3fe608060405234801561001057600080fd5b506004361061002b5760003560e01c806380476dcc14610030575b600080fd5b61004a6004803603810190610045919061042c565b610060565b604051610057919061054e565b60405180910390f35b60008061008c60008054906101000a900473ffffffffffffffffffffffffffffffffffffffff1661015f565b90508073ffffffffffffffffffffffffffffffffffffffff167f5d0de243db1669e3a7056744cd715c625f0c1c348736c2c2d53d0ddebff1a6c7336040516100d4919061054e565b60405180910390a28073ffffffffffffffffffffffffffffffffffffffff166394a640248989898989896040518763ffffffff1660e01b815260040161011f9695949392919061061e565b600060405180830381600087803b15801561013957600080fd5b505af115801561014d573d6000803e3d6000fd5b50505050809150509695505050505050565b6000763d602d80600a3d3981f3363d3d373d3d3d363d730000008260601b60e81c176000526e5af43d82803e903d91602b57fd5bf38260781b17602052603760096000f09050600073ffffffffffffffffffffffffffffffffffffffff168173ffffffffffffffffffffffffffffffffffffffff161415610215576040517f08c379a000000000000000000000000000000000000000000000000000000000815260040161020c906106e0565b60405180910390fd5b919050565b6000604051905090565b600080fd5b600080fd5b600080fd5b600080fd5b6000601f19601f8301169050919050565b7f4e487b7100000000000000000000000000000000000000000000000000000000600052604160045260246000fd5b61028182610238565b810181811067ffffffffffffffff821117156102a05761029f610249565b5b80604052505050565b60006102b361021a565b90506102bf8282610278565b919050565b600067ffffffffffffffff8211156102df576102de610249565b5b6102e882610238565b9050602081019050919050565b82818337600083830152505050565b6000610317610312846102c4565b6102a9565b90508281526020810184848401111561033357610332610233565b5b61033e8482856102f5565b509392505050565b600082601f83011261035b5761035a61022e565b5b813561036b848260208601610304565b91505092915050565b6000819050919050565b61038781610374565b811461039257600080fd5b50565b6000813590506103a48161037e565b92915050565b600061ffff82169050919050565b6103c1816103aa565b81146103cc57600080fd5b50565b6000813590506103de816103b8565b92915050565b60006fffffffffffffffffffffffffffffffff82169050919050565b610409816103e4565b811461041457600080fd5b50565b60008135905061042681610400565b92915050565b60008060008060008060c0878903121561044957610448610224565b5b600087013567ffffffffffffffff81111561046757610466610229565b5b61047389828a01610346565b965050602087013567ffffffffffffffff81111561049457610493610229565b5b6104a089828a01610346565b955050604087013567ffffffffffffffff8111156104c1576104c0610229565b5b6104cd89828a01610346565b94505060606104de89828a01610395565b93505060806104ef89828a016103cf565b92505060a061050089828a01610417565b9150509295509295509295565b600073ffffffffffffffffffffffffffffffffffffffff82169050919050565b60006105388261050d565b9050919050565b6105488161052d565b82525050565b6000602082019050610563600083018461053f565b92915050565b600081519050919050565b600082825260208201905092915050565b60005b838110156105a3578082015181840152602081019050610588565b838111156105b2576000848401525b50505050565b60006105c382610569565b6105cd8185610574565b93506105dd818560208601610585565b6105e681610238565b840191505092915050565b6105fa81610374565b82525050565b610609816103aa565b82525050565b610618816103e4565b82525050565b600060c082019050818103600083015261063881896105b8565b9050818103602083015261064c81886105b8565b9050818103604083015261066081876105b8565b905061066f60608301866105f1565b61067c6080830185610600565b61068960a083018461060f565b979650505050505050565b7f455243313136373a20637265617465206661696c656400000000000000000000600082015250565b60006106ca601683610574565b91506106d582610694565b602082019050919050565b600060208201905081810360008301526106f9816106bd565b905091905056fea264697066735822122053a00195aedc8562e8f20eea82eb3964e6b82e5506f7f8359fbdc699ad4ac9b064736f6c634300080a0033",
			"opcodes": "PUSH1 0x80 PUSH1 0x40 MSTORE CALLVALUE DUP1 ISZERO PUSH2 0x10 JUMPI PUSH1 0x0 DUP1 REVERT JUMPDEST POP PUSH1 0x40 MLOAD PUSH2 0x84D CODESIZE SUB DUP1 PUSH2 0x84D DUP4 CODECOPY DUP2 DUP2 ADD PUSH1 0x40 MSTORE DUP2 ADD SWAP1 PUSH2 0x32 SWAP2 SWAP1 PUSH2 0xDB JUMP JUMPDEST DUP1 PUSH1 0x0 DUP1 PUSH2 0x100 EXP DUP2 SLOAD DUP2 PUSH20 0xFFFFFFFFFFFFFFFFFFFFFFFFFFFFFFFFFFFFFFFF MUL NOT AND SWAP1 DUP4 PUSH20 0xFFFFFFFFFFFFFFFFFFFFFFFFFFFFFFFFFFFFFFFF AND MUL OR SWAP1 SSTORE POP POP PUSH2 0x108 JUMP JUMPDEST PUSH1 0x0 DUP1 REVERT JUMPDEST PUSH1 0x0 PUSH20 0xFFFFFFFFFFFFFFFFFFFFFFFFFFFFFFFFFFFFFFFF DUP3 AND SWAP1 POP SWAP2 SWAP1 POP JUMP JUMPDEST PUSH1 0x0 PUSH2 0xA8 DUP3 PUSH2 0x7D JUMP JUMPDEST SWAP1 POP SWAP2 SWAP1 POP JUMP JUMPDEST PUSH2 0xB8 DUP2 PUSH2 0x9D JUMP JUMPDEST DUP2 EQ PUSH2 0xC3 JUMPI PUSH1 0x0 DUP1 REVERT JUMPDEST POP JUMP JUMPDEST PUSH1 0x0 DUP2 MLOAD SWAP1 POP PUSH2 0xD5 DUP2 PUSH2 0xAF JUMP JUMPDEST SWAP3 SWAP2 POP POP JUMP JUMPDEST PUSH1 0x0 PUSH1 0x20 DUP3 DUP5 SUB SLT ISZERO PUSH2 0xF1 JUMPI PUSH2 0xF0 PUSH2 0x78 JUMP JUMPDEST JUMPDEST PUSH1 0x0 PUSH2 0xFF DUP5 DUP3 DUP6 ADD PUSH2 0xC6 JUMP JUMPDEST SWAP2 POP POP SWAP3 SWAP2 POP POP JUMP JUMPDEST PUSH2 0x736 DUP1 PUSH2 0x117 PUSH1 0x0 CODECOPY PUSH1 0x0 RETURN INVALID PUSH1 0x80 PUSH1 0x40 MSTORE CALLVALUE DUP1 ISZERO PUSH2 0x10 JUMPI PUSH1 0x0 DUP1 REVERT JUMPDEST POP PUSH1 0x4 CALLDATASIZE LT PUSH2 0x2B JUMPI PUSH1 0x0 CALLDATALOAD PUSH1 0xE0 SHR DUP1 PUSH4 0x80476DCC EQ PUSH2 0x30 JUMPI JUMPDEST PUSH1 0x0 DUP1 REVERT JUMPDEST PUSH2 0x4A PUSH1 0x4 DUP1 CALLDATASIZE SUB DUP2 ADD SWAP1 PUSH2 0x45 SWAP2 SWAP1 PUSH2 0x42C JUMP JUMPDEST PUSH2 0x60 JUMP JUMPDEST PUSH1 0x40 MLOAD PUSH2 0x57 SWAP2 SWAP1 PUSH2 0x54E JUMP JUMPDEST PUSH1 0x40 MLOAD DUP1 SWAP2 SUB SWAP1 RETURN JUMPDEST PUSH1 0x0 DUP1 PUSH2 0x8C PUSH1 0x0 DUP1 SLOAD SWAP1 PUSH2 0x100 EXP SWAP1 DIV PUSH20 0xFFFFFFFFFFFFFFFFFFFFFFFFFFFFFFFFFFFFFFFF AND PUSH2 0x15F JUMP JUMPDEST SWAP1 POP DUP1 PUSH20 0xFFFFFFFFFFFFFFFFFFFFFFFFFFFFFFFFFFFFFFFF AND PUSH32 0x5D0DE243DB1669E3A7056744CD715C625F0C1C348736C2C2D53D0DDEBFF1A6C7 CALLER PUSH1 0x40 MLOAD PUSH2 0xD4 SWAP2 SWAP1 PUSH2 0x54E JUMP JUMPDEST PUSH1 0x40 MLOAD DUP1 SWAP2 SUB SWAP1 LOG2 DUP1 PUSH20 0xFFFFFFFFFFFFFFFFFFFFFFFFFFFFFFFFFFFFFFFF AND PUSH4 0x94A64024 DUP10 DUP10 DUP10 DUP10 DUP10 DUP10 PUSH1 0x40 MLOAD DUP8 PUSH4 0xFFFFFFFF AND PUSH1 0xE0 SHL DUP2 MSTORE PUSH1 0x4 ADD PUSH2 0x11F SWAP7 SWAP6 SWAP5 SWAP4 SWAP3 SWAP2 SWAP1 PUSH2 0x61E JUMP JUMPDEST PUSH1 0x0 PUSH1 0x40 MLOAD DUP1 DUP4 SUB DUP2 PUSH1 0x0 DUP8 DUP1 EXTCODESIZE ISZERO DUP1 ISZERO PUSH2 0x139 JUMPI PUSH1 0x0 DUP1 REVERT JUMPDEST POP GAS CALL ISZERO DUP1 ISZERO PUSH2 0x14D JUMPI RETURNDATASIZE PUSH1 0x0 DUP1 RETURNDATACOPY RETURNDATASIZE PUSH1 0x0 REVERT JUMPDEST POP POP POP POP DUP1 SWAP2 POP POP SWAP7 SWAP6 POP POP POP POP POP POP JUMP JUMPDEST PUSH1 0x0 PUSH23 0x3D602D80600A3D3981F3363D3D373D3D3D363D73000000 DUP3 PUSH1 0x60 SHL PUSH1 0xE8 SHR OR PUSH1 0x0 MSTORE PUSH15 0x5AF43D82803E903D91602B57FD5BF3 DUP3 PUSH1 0x78 SHL OR PUSH1 0x20 MSTORE PUSH1 0x37 PUSH1 0x9 PUSH1 0x0 CREATE SWAP1 POP PUSH1 0x0 PUSH20 0xFFFFFFFFFFFFFFFFFFFFFFFFFFFFFFFFFFFFFFFF AND DUP2 PUSH20 0xFFFFFFFFFFFFFFFFFFFFFFFFFFFFFFFFFFFFFFFF AND EQ ISZERO PUSH2 0x215 JUMPI PUSH1 0x40 MLOAD PUSH32 0x8C379A000000000000000000000000000000000000000000000000000000000 DUP2 MSTORE PUSH1 0x4 ADD PUSH2 0x20C SWAP1 PUSH2 0x6E0 JUMP JUMPDEST PUSH1 0x40 MLOAD DUP1 SWAP2 SUB SWAP1 REVERT JUMPDEST SWAP2 SWAP1 POP JUMP JUMPDEST PUSH1 0x0 PUSH1 0x40 MLOAD SWAP1 POP SWAP1 JUMP JUMPDEST PUSH1 0x0 DUP1 REVERT JUMPDEST PUSH1 0x0 DUP1 REVERT JUMPDEST PUSH1 0x0 DUP1 REVERT JUMPDEST PUSH1 0x0 DUP1 REVERT JUMPDEST PUSH1 0x0 PUSH1 0x1F NOT PUSH1 0x1F DUP4 ADD AND SWAP1 POP SWAP2 SWAP1 POP JUMP JUMPDEST PUSH32 0x4E487B7100000000000000000000000000000000000000000000000000000000 PUSH1 0x0 MSTORE PUSH1 0x41 PUSH1 0x4 MSTORE PUSH1 0x24 PUSH1 0x0 REVERT JUMPDEST PUSH2 0x281 DUP3 PUSH2 0x238 JUMP JUMPDEST DUP2 ADD DUP2 DUP2 LT PUSH8 0xFFFFFFFFFFFFFFFF DUP3 GT OR ISZERO PUSH2 0x2A0 JUMPI PUSH2 0x29F PUSH2 0x249 JUMP JUMPDEST JUMPDEST DUP1 PUSH1 0x40 MSTORE POP POP POP JUMP JUMPDEST PUSH1 0x0 PUSH2 0x2B3 PUSH2 0x21A JUMP JUMPDEST SWAP1 POP PUSH2 0x2BF DUP3 DUP3 PUSH2 0x278 JUMP JUMPDEST SWAP2 SWAP1 POP JUMP JUMPDEST PUSH1 0x0 PUSH8 0xFFFFFFFFFFFFFFFF DUP3 GT ISZERO PUSH2 0x2DF JUMPI PUSH2 0x2DE PUSH2 0x249 JUMP JUMPDEST JUMPDEST PUSH2 0x2E8 DUP3 PUSH2 0x238 JUMP JUMPDEST SWAP1 POP PUSH1 0x20 DUP2 ADD SWAP1 POP SWAP2 SWAP1 POP JUMP JUMPDEST DUP3 DUP2 DUP4 CALLDATACOPY PUSH1 0x0 DUP4 DUP4 ADD MSTORE POP POP POP JUMP JUMPDEST PUSH1 0x0 PUSH2 0x317 PUSH2 0x312 DUP5 PUSH2 0x2C4 JUMP JUMPDEST PUSH2 0x2A9 JUMP JUMPDEST SWAP1 POP DUP3 DUP2 MSTORE PUSH1 0x20 DUP2 ADD DUP5 DUP5 DUP5 ADD GT ISZERO PUSH2 0x333 JUMPI PUSH2 0x332 PUSH2 0x233 JUMP JUMPDEST JUMPDEST PUSH2 0x33E DUP5 DUP3 DUP6 PUSH2 0x2F5 JUMP JUMPDEST POP SWAP4 SWAP3 POP POP POP JUMP JUMPDEST PUSH1 0x0 DUP3 PUSH1 0x1F DUP4 ADD SLT PUSH2 0x35B JUMPI PUSH2 0x35A PUSH2 0x22E JUMP JUMPDEST JUMPDEST DUP2 CALLDATALOAD PUSH2 0x36B DUP5 DUP3 PUSH1 0x20 DUP7 ADD PUSH2 0x304 JUMP JUMPDEST SWAP2 POP POP SWAP3 SWAP2 POP POP JUMP JUMPDEST PUSH1 0x0 DUP2 SWAP1 POP SWAP2 SWAP1 POP JUMP JUMPDEST PUSH2 0x387 DUP2 PUSH2 0x374 JUMP JUMPDEST DUP2 EQ PUSH2 0x392 JUMPI PUSH1 0x0 DUP1 REVERT JUMPDEST POP JUMP JUMPDEST PUSH1 0x0 DUP2 CALLDATALOAD SWAP1 POP PUSH2 0x3A4 DUP2 PUSH2 0x37E JUMP JUMPDEST SWAP3 SWAP2 POP POP JUMP JUMPDEST PUSH1 0x0 PUSH2 0xFFFF DUP3 AND SWAP1 POP SWAP2 SWAP1 POP JUMP JUMPDEST PUSH2 0x3C1 DUP2 PUSH2 0x3AA JUMP JUMPDEST DUP2 EQ PUSH2 0x3CC JUMPI PUSH1 0x0 DUP1 REVERT JUMPDEST POP JUMP JUMPDEST PUSH1 0x0 DUP2 CALLDATALOAD SWAP1 POP PUSH2 0x3DE DUP2 PUSH2 0x3B8 JUMP JUMPDEST SWAP3 SWAP2 POP POP JUMP JUMPDEST PUSH1 0x0 PUSH16 0xFFFFFFFFFFFFFFFFFFFFFFFFFFFFFFFF DUP3 AND SWAP1 POP SWAP2 SWAP1 POP JUMP JUMPDEST PUSH2 0x409 DUP2 PUSH2 0x3E4 JUMP JUMPDEST DUP2 EQ PUSH2 0x414 JUMPI PUSH1 0x0 DUP1 REVERT JUMPDEST POP JUMP JUMPDEST PUSH1 0x0 DUP2 CALLDATALOAD SWAP1 POP PUSH2 0x426 DUP2 PUSH2 0x400 JUMP JUMPDEST SWAP3 SWAP2 POP POP JUMP JUMPDEST PUSH1 0x0 DUP1 PUSH1 0x0 DUP1 PUSH1 0x0 DUP1 PUSH1 0xC0 DUP8 DUP10 SUB SLT ISZERO PUSH2 0x449 JUMPI PUSH2 0x448 PUSH2 0x224 JUMP JUMPDEST JUMPDEST PUSH1 0x0 DUP8 ADD CALLDATALOAD PUSH8 0xFFFFFFFFFFFFFFFF DUP2 GT ISZERO PUSH2 0x467 JUMPI PUSH2 0x466 PUSH2 0x229 JUMP JUMPDEST JUMPDEST PUSH2 0x473 DUP10 DUP3 DUP11 ADD PUSH2 0x346 JUMP JUMPDEST SWAP7 POP POP PUSH1 0x20 DUP8 ADD CALLDATALOAD PUSH8 0xFFFFFFFFFFFFFFFF DUP2 GT ISZERO PUSH2 0x494 JUMPI PUSH2 0x493 PUSH2 0x229 JUMP JUMPDEST JUMPDEST PUSH2 0x4A0 DUP10 DUP3 DUP11 ADD PUSH2 0x346 JUMP JUMPDEST SWAP6 POP POP PUSH1 0x40 DUP8 ADD CALLDATALOAD PUSH8 0xFFFFFFFFFFFFFFFF DUP2 GT ISZERO PUSH2 0x4C1 JUMPI PUSH2 0x4C0 PUSH2 0x229 JUMP JUMPDEST JUMPDEST PUSH2 0x4CD DUP10 DUP3 DUP11 ADD PUSH2 0x346 JUMP JUMPDEST SWAP5 POP POP PUSH1 0x60 PUSH2 0x4DE DUP10 DUP3 DUP11 ADD PUSH2 0x395 JUMP JUMPDEST SWAP4 POP POP PUSH1 0x80 PUSH2 0x4EF DUP10 DUP3 DUP11 ADD PUSH2 0x3CF JUMP JUMPDEST SWAP3 POP POP PUSH1 0xA0 PUSH2 0x500 DUP10 DUP3 DUP11 ADD PUSH2 0x417 JUMP JUMPDEST SWAP2 POP POP SWAP3 SWAP6 POP SWAP3 SWAP6 POP SWAP3 SWAP6 JUMP JUMPDEST PUSH1 0x0 PUSH20 0xFFFFFFFFFFFFFFFFFFFFFFFFFFFFFFFFFFFFFFFF DUP3 AND SWAP1 POP SWAP2 SWAP1 POP JUMP JUMPDEST PUSH1 0x0 PUSH2 0x538 DUP3 PUSH2 0x50D JUMP JUMPDEST SWAP1 POP SWAP2 SWAP1 POP JUMP JUMPDEST PUSH2 0x548 DUP2 PUSH2 0x52D JUMP JUMPDEST DUP3 MSTORE POP POP JUMP JUMPDEST PUSH1 0x0 PUSH1 0x20 DUP3 ADD SWAP1 POP PUSH2 0x563 PUSH1 0x0 DUP4 ADD DUP5 PUSH2 0x53F JUMP JUMPDEST SWAP3 SWAP2 POP POP JUMP JUMPDEST PUSH1 0x0 DUP2 MLOAD SWAP1 POP SWAP2 SWAP1 POP JUMP JUMPDEST PUSH1 0x0 DUP3 DUP3 MSTORE PUSH1 0x20 DUP3 ADD SWAP1 POP SWAP3 SWAP2 POP POP JUMP JUMPDEST PUSH1 0x0 JUMPDEST DUP4 DUP2 LT ISZERO PUSH2 0x5A3 JUMPI DUP1 DUP3 ADD MLOAD DUP2 DUP5 ADD MSTORE PUSH1 0x20 DUP2 ADD SWAP1 POP PUSH2 0x588 JUMP JUMPDEST DUP4 DUP2 GT ISZERO PUSH2 0x5B2 JUMPI PUSH1 0x0 DUP5 DUP5 ADD MSTORE JUMPDEST POP POP POP POP JUMP JUMPDEST PUSH1 0x0 PUSH2 0x5C3 DUP3 PUSH2 0x569 JUMP JUMPDEST PUSH2 0x5CD DUP2 DUP6 PUSH2 0x574 JUMP JUMPDEST SWAP4 POP PUSH2 0x5DD DUP2 DUP6 PUSH1 0x20 DUP7 ADD PUSH2 0x585 JUMP JUMPDEST PUSH2 0x5E6 DUP2 PUSH2 0x238 JUMP JUMPDEST DUP5 ADD SWAP2 POP POP SWAP3 SWAP2 POP POP JUMP JUMPDEST PUSH2 0x5FA DUP2 PUSH2 0x374 JUMP JUMPDEST DUP3 MSTORE POP POP JUMP JUMPDEST PUSH2 0x609 DUP2 PUSH2 0x3AA JUMP JUMPDEST DUP3 MSTORE POP POP JUMP JUMPDEST PUSH2 0x618 DUP2 PUSH2 0x3E4 JUMP JUMPDEST DUP3 MSTORE POP POP JUMP JUMPDEST PUSH1 0x0 PUSH1 0xC0 DUP3 ADD SWAP1 POP DUP2 DUP2 SUB PUSH1 0x0 DUP4 ADD MSTORE PUSH2 0x638 DUP2 DUP10 PUSH2 0x5B8 JUMP JUMPDEST SWAP1 POP DUP2 DUP2 SUB PUSH1 0x20 DUP4 ADD MSTORE PUSH2 0x64C DUP2 DUP9 PUSH2 0x5B8 JUMP JUMPDEST SWAP1 POP DUP2 DUP2 SUB PUSH1 0x40 DUP4 ADD MSTORE PUSH2 0x660 DUP2 DUP8 PUSH2 0x5B8 JUMP JUMPDEST SWAP1 POP PUSH2 0x66F PUSH1 0x60 DUP4 ADD DUP7 PUSH2 0x5F1 JUMP JUMPDEST PUSH2 0x67C PUSH1 0x80 DUP4 ADD DUP6 PUSH2 0x600 JUMP JUMPDEST PUSH2 0x689 PUSH1 0xA0 DUP4 ADD DUP5 PUSH2 0x60F JUMP JUMPDEST SWAP8 SWAP7 POP POP POP POP POP POP POP JUMP JUMPDEST PUSH32 0x455243313136373A20637265617465206661696C656400000000000000000000 PUSH1 0x0 DUP3 ADD MSTORE POP JUMP JUMPDEST PUSH1 0x0 PUSH2 0x6CA PUSH1 0x16 DUP4 PUSH2 0x574 JUMP JUMPDEST SWAP2 POP PUSH2 0x6D5 DUP3 PUSH2 0x694 JUMP JUMPDEST PUSH1 0x20 DUP3 ADD SWAP1 POP SWAP2 SWAP1 POP JUMP JUMPDEST PUSH1 0x0 PUSH1 0x20 DUP3 ADD SWAP1 POP DUP2 DUP2 SUB PUSH1 0x0 DUP4 ADD MSTORE PUSH2 0x6F9 DUP2 PUSH2 0x6BD JUMP JUMPDEST SWAP1 POP SWAP2 SWAP1 POP JUMP INVALID LOG2 PUSH5 0x6970667358 0x22 SLT KECCAK256 MSTORE8 LOG0 ADD SWAP6 0xAE 0xDC DUP6 PUSH3 0xE8F20E 0xEA DUP3 0xEB CODECOPY PUSH5 0xE6B82E5506 0xF7 0xF8 CALLDATALOAD SWAP16 0xBD 0xC6 SWAP10 0xAD 0x4A 0xC9 0xB0 PUSH5 0x736F6C6343 STOP ADDMOD EXP STOP CALLER "
		},
		"gasEstimates": {
			"creation": {
				"codeDepositCost": "369200",
				"executionCost": "infinite",
				"totalCost": "infinite"
			},
			"external": {
				"createNftCollection(string,string,string,uint256,uint16,uint128)": "infinite"
			}
		},
		"methodIdentifiers": {
			"createNftCollection(string,string,string,uint256,uint16,uint128)": "80476dcc"
		}
	},
	"abi": [
		{
			"inputs": [
				{
					"internalType": "address",
					"name": "_implementation",
					"type": "address"
				}
			],
			"stateMutability": "nonpayable",
			"type": "constructor"
		},
		{
			"anonymous": false,
			"inputs": [
				{
					"indexed": false,
					"internalType": "address",
					"name": "creator",
					"type": "address"
				},
				{
					"indexed": true,
					"internalType": "address",
					"name": "contractAddress",
					"type": "address"
				}
			],
			"name": "CollectionCreated",
			"type": "event"
		},
		{
			"inputs": [
				{
					"internalType": "string",
					"name": "_name",
					"type": "string"
				},
				{
					"internalType": "string",
					"name": "_symbol",
					"type": "string"
				},
				{
					"internalType": "string",
					"name": "assetUrl",
					"type": "string"
				},
				{
					"internalType": "uint256",
					"name": "maxQuantity_",
					"type": "uint256"
				},
				{
					"internalType": "uint16",
					"name": "edition_",
					"type": "uint16"
				},
				{
					"internalType": "uint128",
					"name": "cost_",
					"type": "uint128"
				}
			],
			"name": "createNftCollection",
			"outputs": [
				{
					"internalType": "address",
					"name": "",
					"type": "address"
				}
			],
			"stateMutability": "nonpayable",
			"type": "function"
		}
	]
}